:100000000C9434000C9451000C9451000C94510049
:100010000C9451000C9451000C9451000C9451001C
:100020000C9451000C9451000C94FD030C9451005D
:100030000C9451000C9449040C9451000C94510000
:100040000C9451000C9451000C9451000C945100EC
:100050000C9451000C9451000C9451000C945100DC
:100060000C9451000C94510011241FBECFEFD8E026
:10007000DEBFCDBF11E0A0E0B1E0EAEDF1E102C0EA
:1000800005900D92AC37B107D9F721E0ACE7B1E0AC
:1000900001C01D92A238B207E1F70E9448020C94F9
:1000A000EB080C940000ECE7F0E080818064808332
:1000B000EAE7F0E0808187608083808180688083C8
:1000C0008081806480830895ECE7F0E09081907FE8
:1000D00090839081892B8083EAE7F0E080818064BF
:1000E0008083808186FDFDCF80917800909179009A
:1000F000089586E40E94060680E10E9435060E946B
:100100002C0608950F931F93CF93DF938C0187E400
:100110000E9406060E944706C82FD0E0DC2FCC279D
:100120000E945206C82B0E942C06BE0180E090E07F
:100130000E9495072AE939E949E95FE30E94ED0643
:100140000E946607F80171836083DF91CF911F9150
:100150000F9108959C012227387F211588EF3807D9
:1001600039F091E0232B09F490E0892F81950895CF
:1001700081E008950F931F93CF93DF93EC018B01E0
:100180000E94AA00F8018083811120C0BE01660F81
:10019000771F62957295707F7627607F76277595B9
:1001A0006795759567957595679575956795759537
:1001B0006795072E000C880B990B0E94970720E08B
:1001C00030E040E85DE30E94230829C0813019F542
:1001D000662777276C1B7D0B660F771F62957295DC
:1001E000707F7627607F76277595679575956795FB
:1001F000759567957595679575956795072E000CAC
:10020000880B990B0E94970720E030E040E85DE3FF
:100210000E94230804C066EF7FE38CE196E4DF913F
:10022000CF911F910F910895EF92FF920F931F931B
:10023000CF93DF937A01E9010E94BA00F70160834E
:100240007183828393836FEF73E06C1B7D0B80E07F
:1002500090E00E94950720E030E048EC52E40E94D4
:10026000230820E030EC4FE754E40E94ED06F8014B
:100270006083718382839383DF91CF911F910F916C
:10028000FF90EF9008957F928F929F92AF92BF92CE
:10029000CF92DF92EF92FF920F931F93CF93DF9352
:1002A0007C016B015A01722E4801012B21F40CECE8
:1002B0000E94350312C005E50E943503E401219632
:1002C00088E0880E911C0991272DA501B601C70170
:1002D0000E943503C815D905B1F7DF91CF911F9161
:1002E0000F91FF90EF90DF90CF90BF90AF909F90D5
:1002F0008F907F9008957F928F929F92AF92BF923E
:10030000CF92DF92EF92FF920F931F93CF93DF93E1
:100310006C015B014A01722E0E94D502813079F195
:10032000272DA401B501C6010E9443010EEB272D24
:10033000A401B501C6010E943503E7018701075FEB
:100340001F4F272DA401B501C6010E948A0389937E
:10035000C017D107B1F7F70190818181892B928174
:10036000892B9381892B9481892B9581892B968167
:10037000892B9781892B11F080E001C083E0DF9108
:10038000CF911F910F91FF90EF90DF90CF90BF9092
:10039000AF909F908F907F900895CF92DF92EF92D1
:1003A000FF920F931F93CF93DF93CDB7DEB72997BB
:1003B0000FB6F894DEBF0FBECDBF6701FE013196C8
:1003C0007F010E947B01182F882349F080E091E093
:1003D0000E947106F60111821082812F0BC08A8162
:1003E00090E0982F88272981820F911DF601918333
:1003F000808380E029960FB6F894DEBF0FBECDBF94
:10040000DF91CF911F910F91FF90EF90DF90CF90F0
:100410000895BF92CF92DF92EF92FF920F931F93B6
:10042000CF93DF93EC017B016A01B22E0E94D502CB
:10043000813071F02B2DA601B701CE010E9443013E
:1004400004E42B2DA601B701CE010E94350380E004
:10045000DF91CF911F910F91FF90EF90DF90CF90A0
:10046000BF9008952198239A249A259A08950E946E
:1004700032020E9462040E94000685E38A95F1F729
:1004800000000E945D060E9453000E9479000895BA
:10049000CF93DF93CDB7DEB7A9970FB6F894DEBF41
:1004A0000FBECDBF19821B821A821C821D821E8242
:1004B0001F82198618861A861B861C861D861F8633
:1004C0001E8687E0FE017096DF01282F1D922A9577
:1004D000E9F737969CE0DF011D929A95E9F73C9683
:1004E000DF011D928A95E9F70E943702BFEF23EDE5
:1004F00080E3B15020408040E1F700C000008FE071
:1005000091E00E947106AE01425F5F4FBE01685FDD
:100510007F4FCE0102960E94EA03288539858E011D
:10052000065F1F4FAE014C5F5F4FBE016F5F7F4F95
:100530008A819B810E941401AE84BF84EA84FB847B
:100540000C851D854C815D816E817F81DE019396D6
:100550004D01CE0140966C019E01295E3F4F89817D
:100560000E94D2058CE291E00E947106CE0147966E
:100570000E94710680E491E00E94710687E491E098
:100580000E947106C6010E94710689E591E00E94F1
:1005900071068DE591E00E947106C4010E9471060A
:1005A00085E791E00E947106AECFDC01FB018081FE
:1005B000822B80838C91822B8C938C91922F90959F
:1005C00089238C93AFE5B9E01197F1F700C00000E3
:1005D000808198239083E7E1F1E03197F1F700C043
:1005E0000000DA018C91EFE1F3E03197F1F700C000
:1005F0000000AFEAB4E01197F1F700C00000282333
:1006000081E009F480E008950F93FC01DB018C91F7
:10061000822B8C938081822B80838081922F909576
:1006200089238083002371F0BAE2BA95F1F700C004
:100630008081282B20838FE391E00197F1F700C0A0
:1006400000000DC0AFE3B1E01197F1F700C000006A
:100650008081282B2083BAE0BA95F1F700C081E0B1
:10066000011101C080E00F9108958F929F92AF9287
:10067000BF92CF92DF92EF92FF920F931F93CF938F
:10068000DF934C015B016A01122FD02F6894EE2496
:10069000E3F8F12CC1E00D2F0C23212FA601B501A9
:1006A000C4010E940403CC0F81E0E81AF10899F715
:1006B000DF91CF911F910F91FF90EF90DF90CF903E
:1006C000BF90AF909F908F900895DC01FB018081D7
:1006D000822B80838C91822B8C938C91922F90957E
:1006E00089238C938AE08A95F1F700C08081982352
:1006F0009083EAE1EA95F1F700C0FA018081EFEE1C
:10070000F0E03197F1F700C00000282381E009F400
:1007100080E008959F92AF92BF92CF92DF92EF92C6
:10072000FF920F931F93CF93DF935C016B017A01CC
:10073000922E08E010E0C1E0D0E0292DA701B6011B
:10074000C5010E9465038C9FC0011124D82BCC0FDA
:100750000150110991F78D2FDF91CF911F910F91CA
:10076000FF90EF90DF90CF90BF90AF909F90089553
:10077000EF92FF920F931F937C0100E010E022E0C4
:1007800043E250E064E270E085E290E00E940902FA
:100790002FEF83ED90E3215080409040E1F700C0BF
:1007A000000022E043E250E064E270E085E290E085
:1007B0000E94CD011F910F91FF90EF900895CF936C
:1007C000DF93EC0180E00E94640099838883DF91CD
:1007D000CF9108950F931F93CF93DF938B01EA017D
:1007E0000E94B803C8010E94DF03CE010E9482006C
:1007F000DF91CF911F910F9108951F920F920FB625
:100800000F9211248F939F93EF93FF938091810117
:1008100081110EC0809186009091870080937E01A7
:10082000E1E8F0E080818F7B808310927F0123C01C
:1008300080918101813081F48091860090918700C0
:1008400080937D01E1E8F0E0808180648083809185
:100850007F01809380010FC080918101823059F423
:10086000809186009091870080937C01EFE6F0E014
:1008700080818E7D8083809181018F5F8093810153
:10088000FF91EF919F918F910F900FBE0F901F904E
:1008900018951F920F920FB60F9211248F939F936A
:1008A00080917F018F5F80937F0180E398EF909329
:1008B0008500809384009F918F910F900FBE0F90C1
:1008C0001F90189580E398EF9093850080938400A3
:1008D0001092800082E48093810081E280936F0017
:1008E00078940895CF93DF93EA010E945F07DC01BB
:1008F000CB014AE0BE010E94B608DF91CF91089576
:100900000F931F93CF93DF938C01EB01FB010190B9
:100910000020E9F73197AF01461B570B60E070E00C
:10092000CE010E94A408B80180E090E00E949507E3
:10093000AE010E947204DF91CF911F910F91089533
:10094000CF93DF931F92CDB7DEB79C016983898176
:100950008823D9F041E050E0998190FF08C0CA0196
:10096000829FA001839F500D929F500D1124C901B9
:10097000889F9001899F300D300D112499819695A3
:10098000998399819111E8CF02C041E050E0CA01FA
:100990000F90DF91CF910895CF92DF92EF92FF9267
:1009A0000F931F93CF93DF936B017C01EA010E94A9
:1009B0005F07072E000C880B990B0E9497079B017D
:1009C000AC01C701B6010E94800620E030E048EC8F
:1009D00052E40E9423080E9466078B018EE28883FE
:1009E00061E08AE090E00E94A004BC01C8010E947E
:1009F0009008605D698361E08AE090E00E94A00455
:100A0000BC01C8010E9490088C0160E08AE090E07F
:100A10000E94A004BC01C8010E949008605D6A8326
:100A200060E08AE090E00E94A0041B82DF91CF91F9
:100A30001F910F91FF90EF90DF90CF900895CF928C
:100A4000DF92EF92FF920F931F93CF93DF93CDB777
:100A5000DEB727970FB6F894DEBF0FBECDBF6B0190
:100A60007C018A0119821A821B821C821D821E82CD
:100A70001F82FA0101900020E9F73197AF01401B76
:100A8000510B60E070E0C8010E94A408AE014F5F06
:100A90005F4FC701B6010E947204AE014C5F5F4F09
:100AA000C701B6010E94CC04BE016F5F7F4FC80131
:100AB0000E94AB08BE016C5F7F4FC8010E94AB086B
:100AC00027960FB6F894DEBF0FBECDBFDF91CF9152
:100AD0001F910F91FF90EF90DF90CF900895BF92FC
:100AE000CF92DF92EF92FF920F931F93CF93DF93FA
:100AF000CDB7DEB729970FB6F894DEBF0FBECDBFD6
:100B0000B82E6A017B018901FE01319685E0DF0183
:100B10001D928A95E9F71E821F8218861986F901AF
:100B200001900020E9F73197AF01421B530B60E0C1
:100B300070E0C9010E94A408B1E0BB1209C0F8012D
:100B400001900020E9F731978DE290E09183808356
:100B5000AE014F5F5F4FC701B6010E947204AE0144
:100B60004A5F5F4FC701B6010E94CC04BE016F5FB0
:100B70007F4FC8010E94AB08BE016A5F7F4FC8016A
:100B80000E94AB0829960FB6F894DEBF0FBECDBF0A
:100B9000DF91CF911F910F91FF90EF90DF90CF9059
:100BA000BF9008954F925F926F927F928F929F9223
:100BB000AF92BF92CF92DF92EF92FF920F931F936B
:100BC000CF93DF93CDB7DEB70E946F05A601C801B2
:100BD000B7010E941F05B401C5010E948004DF9186
:100BE000CF911F910F91FF90EF90DF90CF90BF902A
:100BF000AF909F908F907F906F905F904F900895EF
:100C00001092B9008AE28093B8000895CF93DF93E1
:100C1000ECEBF0E024EAA9EBB0E0CBEBD0E034E879
:100C200044E9208390819923ECF79C91987F983038
:100C300011F09031B1F78883308390819923ECF7DC
:100C40009C91987E903229F44083908194FDFDCF51
:100C5000E8CFDF91CF91089584E98093BC00ECEB5D
:100C6000F0E0808184FDFDCF08958093BB0084E88F
:100C70008093BC00ECEBF0E080818823ECF790914E
:100C8000B900987F81E0983209F480E0089584ECFF
:100C90008093BC00ECEBF0E080818823ECF780913E
:100CA000BB00089584E88093BC00ECEBF0E0808109
:100CB0008823ECF78091BB0008951092C50087E669
:100CC0008093C40088E18093C10086E08093C200D5
:100CD0000895E0ECF0E0908195FFFDCF8093C60091
:100CE0000895CF93DF93EC018881882331F021961A
:100CF0000E94690689918111FBCFDF91CF91089500
:100D00005058BB27AA270E9498060C94E9070E9416
:100D1000DB0738F00E94E20720F039F49F3F19F416
:100D200026F40C94D8070EF4E095E7FB0C94D20758
:100D3000E92F0E94FA0758F3BA176207730784076E
:100D4000950720F079F4A6F50C941C080EF4E095B4
:100D50000B2EBA2FA02D0B01B90190010C01CA0175
:100D6000A0011124FF27591B99F0593F50F4503E20
:100D700068F11A16F040A22F232F342F4427585F12
:100D8000F3CF469537952795A795F0405395C9F72A
:100D90007EF41F16BA0B620B730B840BBAF09150E2
:100DA000A1F0FF0FBB1F661F771F881FC2F70EC081
:100DB000BA0F621F731F841F48F487957795679554
:100DC000B795F7959E3F08F0B0CF9395880F08F040
:100DD0009927EE0F9795879508950E9401070C9427
:100DE000E9070E94E20758F00E94DB0740F029F46F
:100DF0005F3F29F00C94D20751110C941D080C94FC
:100E0000D8070E94FA0768F39923B1F3552391F3A9
:100E1000951B550BBB27AA2762177307840738F069
:100E20009F5F5F4F220F331F441FAA1FA9F335D0C6
:100E30000E2E3AF0E0E832D091505040E695001C7A
:100E4000CAF72BD0FE2F29D0660F771F881FBB1F34
:100E5000261737074807AB07B0E809F0BB0B802D12
:100E6000BF01FF2793585F4F3AF09E3F510578F03E
:100E70000C94D2070C941D085F3FE4F3983ED4F322
:100E8000869577956795B795F7959F5FC9F7880F12
:100E9000911D9695879597F90895E1E0660F771F64
:100EA000881FBB1F621773078407BA0720F0621BF5
:100EB000730B840BBA0BEE1F88F7E09508950E9420
:100EC00066076894B1110C941D0808950E940208E9
:100ED00088F09F5798F0B92F9927B751B0F0E1F0FB
:100EE000660F771F881F991F1AF0BA95C9F714C0AB
:100EF000B13091F00E941C08B1E008950C941C08D8
:100F0000672F782F8827B85F39F0B93FCCF38695E3
:100F100077956795B395D9F73EF490958095709540
:100F200061957F4F8F4F9F4F0895E89409C097FBBD
:100F30003EF490958095709561957F4F8F4F9F4FB0
:100F40009923A9F0F92F96E9BB279395F6958795F4
:100F500077956795B795F111F8CFFAF4BB0F11F4B7
:100F600060FF1BC06F5F7F4F8F4F9F4F16C088235E
:100F700011F096E911C0772321F09EE8872F762F94
:100F800005C0662371F096E8862F70E060E02AF0D5
:100F90009A95660F771F881FDAF7880F96958795C1
:100FA00097F9089597F99F6780E870E060E00895E9
:100FB0009FEF80EC089500240A9416161706180671
:100FC0000906089500240A9412161306140605064D
:100FD0000895092E0394000C11F4882352F0BB0FDE
:100FE00040F4BF2B11F460FF04C06F5F7F4F8F4F41
:100FF0009F4F089557FD9058440F551F59F05F3F7C
:1010000071F04795880F97FB991F61F09F3F79F02A
:1010100087950895121613061406551FF2CF4695AC
:10102000F1DF08C0161617061806991FF1CF86952E
:101030007105610508940895E894BB276627772712
:10104000CB0197F908950E9436080C94E9070E9495
:10105000DB0738F00E94E20720F0952311F00C9492
:10106000D2070C94D80711240C941D080E94FA078B
:1010700070F3959FC1F3950F50E0551F629FF001EB
:10108000729FBB27F00DB11D639FAA27F00DB11D04
:10109000AA1F649F6627B00DA11D661F829F22278D
:1010A000B00DA11D621F739FB00DA11D621F839F14
:1010B000A00D611D221F749F3327A00D611D231FEA
:1010C000849F600D211D822F762F6A2F11249F5738
:1010D00050409AF0F1F088234AF0EE0FFF1FBB1F3B
:1010E000661F771F881F91505040A9F79E3F5105FA
:1010F00080F00C94D2070C941D085F3FE4F3983EF7
:10110000D4F3869577956795B795F795E7959F5FA3
:10111000C1F7FE2B880F911D9695879597F9089535
:10112000AA1BBB1B51E107C0AA1FBB1FA617B7070D
:1011300010F0A61BB70B881F991F5A95A9F7809529
:101140009095BC01CD010895DC0101C06D93415023
:101150005040E0F70895FB01DC010D900020E9F715
:10116000119701900D920020E1F70895BB274A30B6
:1011700031F4992322F4BDE2909581959F4F0C9410
:10118000C208BB27FB015527AA27880F991FAA1F52
:10119000A41710F0A41B83955051B9F7A05DAA3392
:1011A00008F0A95DA193009779F7B111B19311925D
:1011B000CB010C94DB08DC01FC01672F71917723D4
:1011C000E1F7329704C07C916D9370836291AE1702
:0A11D000BF07C8F30895F894FFCF9D
:1011DA0064733138623230206572726F720A000AA3
:1011EA000A696E697469616C697A6174696F6E20E3
:1011FA00636F6D706C657465640A0A007465737454
:10120A002074656D70657261747572653A200900A3
:10121A0020646567430A00746573742068756D6994
:10122A00646974793A2009090020250A00746573F3
:10123A0074206C696768742D696E74656E7369745D
:0C124A00793A200900206C75780A0A002F
:00000001FF
